{
  "abi": [
    {
      "inputs": [
        {
          "internalType": "contract FiatTokenProxy",
          "name": "proxy",
          "type": "address"
        },
        {
          "internalType": "contract FiatTokenV2",
          "name": "implementation",
          "type": "address"
        },
        {
          "internalType": "address",
          "name": "newProxyAdmin",
          "type": "address"
        },
        {
          "internalType": "string",
          "name": "newName",
          "type": "string"
        }
      ],
      "stateMutability": "nonpayable",
      "type": "constructor"
    },
    {
      "anonymous": false,
      "inputs": [
        {
          "indexed": false,
          "internalType": "address",
          "name": "previousOwner",
          "type": "address"
        },
        {
          "indexed": false,
          "internalType": "address",
          "name": "newOwner",
          "type": "address"
        }
      ],
      "name": "OwnershipTransferred",
      "type": "event"
    },
    {
      "inputs": [],
      "name": "abortUpgrade",
      "outputs": [],
      "stateMutability": "nonpayable",
      "type": "function"
    },
    {
      "inputs": [],
      "name": "helper",
      "outputs": [
        {
          "internalType": "address",
          "name": "",
          "type": "address"
        }
      ],
      "stateMutability": "view",
      "type": "function"
    },
    {
      "inputs": [],
      "name": "implementation",
      "outputs": [
        {
          "internalType": "address",
          "name": "",
          "type": "address"
        }
      ],
      "stateMutability": "view",
      "type": "function"
    },
    {
      "inputs": [],
      "name": "newName",
      "outputs": [
        {
          "internalType": "string",
          "name": "",
          "type": "string"
        }
      ],
      "stateMutability": "view",
      "type": "function"
    },
    {
      "inputs": [],
      "name": "newProxyAdmin",
      "outputs": [
        {
          "internalType": "address",
          "name": "",
          "type": "address"
        }
      ],
      "stateMutability": "view",
      "type": "function"
    },
    {
      "inputs": [],
      "name": "owner",
      "outputs": [
        {
          "internalType": "address",
          "name": "",
          "type": "address"
        }
      ],
      "stateMutability": "view",
      "type": "function"
    },
    {
      "inputs": [],
      "name": "proxy",
      "outputs": [
        {
          "internalType": "address",
          "name": "",
          "type": "address"
        }
      ],
      "stateMutability": "view",
      "type": "function"
    },
    {
      "inputs": [
        {
          "internalType": "address",
          "name": "newOwner",
          "type": "address"
        }
      ],
      "name": "transferOwnership",
      "outputs": [],
      "stateMutability": "nonpayable",
      "type": "function"
    },
    {
      "inputs": [],
      "name": "upgrade",
      "outputs": [],
      "stateMutability": "nonpayable",
      "type": "function"
    },
    {
      "inputs": [],
      "name": "withdrawUSDC",
      "outputs": [],
      "stateMutability": "nonpayable",
      "type": "function"
    }
  ],
  "bytecode": {
    "object": "0x60806040523480156200001157600080fd5b50604051620029a4380380620029a4833981810160405260808110156200003757600080fd5b8151602083015160408085015160608601805192519496939591949391820192846401000000008211156200006b57600080fd5b9083019060208201858111156200008157600080fd5b82516401000000008111828201881017156200009c57600080fd5b82525081516020918201929091019080838360005b83811015620000cb578181015183820152602001620000b1565b50505050905090810190601f168015620000f95780820380516001836020036101000a031916815260200191505b506040525050506200011133620001cd60201b60201c565b600180546001600160a01b038087166001600160a01b031992831617909255600280548684169083161790556003805492851692909116919091179055805162000163906004906020840190620001ef565b5083604051620001739062000274565b6001600160a01b03909116815260405190819003602001906000f080158015620001a1573d6000803e3d6000fd5b50600580546001600160a01b0319166001600160a01b0392909216919091179055506200029992505050565b600080546001600160a01b0319166001600160a01b0392909216919091179055565b828054600181600116156101000203166002900490600052602060002090601f016020900481019282601f106200023257805160ff191683800117855562000262565b8280016001018555821562000262579182015b828111156200026257825182559160200191906001019062000245565b506200027092915062000282565b5090565b610985806200201f83390190565b5b8082111562000270576000815560010162000283565b611d7680620002a96000396000f3fe608060405234801561001057600080fd5b506004361061009e5760003560e01c8063d55ec69711610066578063d55ec6971461015c578063d8f6a8f614610166578063d8fc063d1461016e578063ec55688914610176578063f2fde38b1461017e5761009e565b80632d4efffe146100a35780635c60da1b146100c757806363b0e66a146100cf57806364b78570146100d75780638da5cb5b14610154575b600080fd5b6100ab6101a4565b604080516001600160a01b039092168252519081900360200190f35b6100ab6101b3565b6100ab6101c2565b6100df6101d1565b6040805160208082528351818301528351919283929083019185019080838360005b83811015610119578181015183820152602001610101565b50505050905090810190601f1680156101465780820380516001836020036101000a031916815260200191505b509250505060405180910390f35b6100ab610267565b610164610276565b005b6101646117a8565b6101646118ae565b6100ab611a39565b6101646004803603602081101561019457600080fd5b50356001600160a01b0316611a48565b6003546001600160a01b031690565b6002546001600160a01b031690565b6005546001600160a01b031690565b60048054604080516020601f600260001961010060018816150201909516949094049384018190048102820181019092528281526060939092909183018282801561025d5780601f106102325761010080835404028352916020019161025d565b820191906000526020600020905b81548152906001019060200180831161024057829003601f168201915b5050505050905090565b6000546001600160a01b031690565b6000546001600160a01b031633146102c3576040805162461bcd60e51b81526020600482018190526024820152600080516020611cb1833981519152604482015290519081900360640190fd5b600554604080516370a0823160e01b815230600482015290516000926001600160a01b0316916370a08231916024808301926020929190829003018186803b15801561030e57600080fd5b505afa158015610322573d6000803e3d6000fd5b505050506040513d602081101561033857600080fd5b5051905062030d40811015610394576040805162461bcd60e51b815260206004820152601b60248201527f563255706772616465723a20302e322055534443206e65656465640000000000604482015290519081900360640190fd5b600554604080516370a0823160e01b815233600482015290516000926001600160a01b0316916370a08231916024808301926020929190829003018186803b1580156103df57600080fd5b505afa1580156103f3573d6000803e3d6000fd5b505050506040513d602081101561040957600080fd5b5051600554604080516395d89b4160e01b815290519293506060926001600160a01b03909216916395d89b4191600480820192600092909190829003018186803b15801561045657600080fd5b505afa15801561046a573d6000803e3d6000fd5b505050506040513d6000823e601f3d908101601f19168201604052602081101561049357600080fd5b8101908080516040519392919084600160201b8211156104b257600080fd5b9083019060208201858111156104c757600080fd5b8251600160201b8111828201881017156104e057600080fd5b82525081516020918201929091019080838360005b8381101561050d5781810151838201526020016104f5565b50505050905090810190601f16801561053a5780820380516001836020036101000a031916815260200191505b50604081815260055463313ce56760e01b835290519596506000956001600160a01b03909116945063313ce567935060048083019350602092829003018186803b15801561058757600080fd5b505afa15801561059b573d6000803e3d6000fd5b505050506040513d60208110156105b157600080fd5b50516005546040805163e5a6b10f60e01b815290519293506060926001600160a01b039092169163e5a6b10f91600480820192600092909190829003018186803b1580156105fe57600080fd5b505afa158015610612573d6000803e3d6000fd5b505050506040513d6000823e601f3d908101601f19168201604052602081101561063b57600080fd5b8101908080516040519392919084600160201b82111561065a57600080fd5b90830190602082018581111561066f57600080fd5b8251600160201b81118282018810171561068857600080fd5b82525081516020918201929091019080838360005b838110156106b557818101518382015260200161069d565b50505050905090810190601f1680156106e25780820380516001836020036101000a031916815260200191505b5060408181526005546335d99f3560e01b835290519596506000956001600160a01b0390911694506335d99f35935060048083019350602092829003018186803b15801561072f57600080fd5b505afa158015610743573d6000803e3d6000fd5b505050506040513d602081101561075957600080fd5b50516005546040805163369e2ddf60e11b815290519293506000926001600160a01b0390921691636d3c5bbe91600480820192602092909190829003018186803b1580156107a657600080fd5b505afa1580156107ba573d6000803e3d6000fd5b505050506040513d60208110156107d057600080fd5b505160055460408051639fd0506d60e01b815290519293506000926001600160a01b0390921691639fd0506d91600480820192602092909190829003018186803b15801561081d57600080fd5b505afa158015610831573d6000803e3d6000fd5b505050506040513d602081101561084757600080fd5b505160055460408051630bd1024360e41b815290519293506000926001600160a01b039092169163bd10243091600480820192602092909190829003018186803b15801561089457600080fd5b505afa1580156108a8573d6000803e3d6000fd5b505050506040513d60208110156108be57600080fd5b505160015460025460408051631b2ce7f360e11b81526001600160a01b0392831660048201529051939450911691633659cfe69160248082019260009290919082900301818387803b15801561091357600080fd5b505af1158015610927573d6000803e3d6000fd5b5050600154600354604080516308f2839760e41b81526001600160a01b0392831660048201529051919092169350638f2839709250602480830192600092919082900301818387803b15801561097c57600080fd5b505af1158015610990573d6000803e3d6000fd5b5050600180546040516335823a9960e21b815260206004828101918252805460026000199682161561010002969096011694909404602483018190526001600160a01b03909316955085945063d608ea6493929091829160449091019084908015610a3c5780601f10610a1157610100808354040283529160200191610a3c565b820191906000526020600020905b815481529060010190602001808311610a1f57829003601f168201915b505092505050600060405180830381600087803b158015610a5c57600080fd5b505af1158015610a70573d6000803e3d6000fd5b50505050806001600160a01b03166306fdde036040518163ffffffff1660e01b815260040160006040518083038186803b158015610aad57600080fd5b505afa158015610ac1573d6000803e3d6000fd5b505050506040513d6000823e601f3d908101601f191682016040526020811015610aea57600080fd5b8101908080516040519392919084600160201b821115610b0957600080fd5b908301906020820185811115610b1e57600080fd5b8251600160201b811182820188101715610b3757600080fd5b82525081516020918201929091019080838360005b83811015610b64578181015183820152602001610b4c565b50505050905090810190601f168015610b915780820380516001836020036101000a031916815260200191505b506040525050508051906020012060046040518082805460018160011615610100020316600290048015610bfc5780601f10610bda576101008083540402835291820191610bfc565b820191906000526020600020905b815481529060010190602001808311610be8575b50509150506040518091039020148015610d465750806001600160a01b03166395d89b416040518163ffffffff1660e01b815260040160006040518083038186803b158015610c4a57600080fd5b505afa158015610c5e573d6000803e3d6000fd5b505050506040513d6000823e601f3d908101601f191682016040526020811015610c8757600080fd5b8101908080516040519392919084600160201b821115610ca657600080fd5b908301906020820185811115610cbb57600080fd5b8251600160201b811182820188101715610cd457600080fd5b82525081516020918201929091019080838360005b83811015610d01578181015183820152602001610ce9565b50505050905090810190601f168015610d2e5780820380516001836020036101000a031916815260200191505b50604052505050805190602001208880519060200120145b8015610dbb5750806001600160a01b031663313ce5676040518163ffffffff1660e01b815260040160206040518083038186803b158015610d8657600080fd5b505afa158015610d9a573d6000803e3d6000fd5b505050506040513d6020811015610db057600080fd5b505160ff8881169116145b8015610ef75750806001600160a01b031663e5a6b10f6040518163ffffffff1660e01b815260040160006040518083038186803b158015610dfb57600080fd5b505afa158015610e0f573d6000803e3d6000fd5b505050506040513d6000823e601f3d908101601f191682016040526020811015610e3857600080fd5b8101908080516040519392919084600160201b821115610e5757600080fd5b908301906020820185811115610e6c57600080fd5b8251600160201b811182820188101715610e8557600080fd5b82525081516020918201929091019080838360005b83811015610eb2578181015183820152602001610e9a565b50505050905090810190601f168015610edf5780820380516001836020036101000a031916815260200191505b50604052505050805190602001208680519060200120145b8015610f725750806001600160a01b03166335d99f356040518163ffffffff1660e01b815260040160206040518083038186803b158015610f3757600080fd5b505afa158015610f4b573d6000803e3d6000fd5b505050506040513d6020811015610f6157600080fd5b50516001600160a01b038681169116145b8015610fed5750806001600160a01b0316638da5cb5b6040518163ffffffff1660e01b815260040160206040518083038186803b158015610fb257600080fd5b505afa158015610fc6573d6000803e3d6000fd5b505050506040513d6020811015610fdc57600080fd5b50516001600160a01b038581169116145b80156110685750806001600160a01b0316639fd0506d6040518163ffffffff1660e01b815260040160206040518083038186803b15801561102d57600080fd5b505afa158015611041573d6000803e3d6000fd5b505050506040513d602081101561105757600080fd5b50516001600160a01b038481169116145b80156110e35750806001600160a01b031663bd1024306040518163ffffffff1660e01b815260040160206040518083038186803b1580156110a857600080fd5b505afa1580156110bc573d6000803e3d6000fd5b505050506040513d60208110156110d257600080fd5b50516001600160a01b038381169116145b611134576040805162461bcd60e51b815260206004820181905260248201527f563255706772616465723a206d657461646174612074657374206661696c6564604482015290519081900360640190fd5b89816001600160a01b03166370a08231306040518263ffffffff1660e01b815260040180826001600160a01b0316815260200191505060206040518083038186803b15801561118257600080fd5b505afa158015611196573d6000803e3d6000fd5b505050506040513d60208110156111ac57600080fd5b5051146111ea5760405162461bcd60e51b8152600401808060200182810382526021815260200180611cf46021913960400191505060405180910390fd5b6040805163a9059cbb60e01b8152336004820152620186a0602482015290516001600160a01b0383169163a9059cbb9160448083019260209291908290030181600087803b15801561123b57600080fd5b505af115801561124f573d6000803e3d6000fd5b505050506040513d602081101561126557600080fd5b505180156112ef575061127b89620186a0611b2e565b604080516370a0823160e01b815233600482015290516001600160a01b038416916370a08231916024808301926020929190829003018186803b1580156112c157600080fd5b505afa1580156112d5573d6000803e3d6000fd5b505050506040513d60208110156112eb57600080fd5b5051145b801561137757506113038a620186a0611b8f565b604080516370a0823160e01b815230600482015290516001600160a01b038416916370a08231916024808301926020929190829003018186803b15801561134957600080fd5b505afa15801561135d573d6000803e3d6000fd5b505050506040513d602081101561137357600080fd5b5051145b6113c8576040805162461bcd60e51b815260206004820181905260248201527f563255706772616465723a207472616e736665722074657374206661696c6564604482015290519081900360640190fd5b6005546040805163095ea7b360e01b81526001600160a01b039283166004820152620186a0602482015290519183169163095ea7b3916044808201926020929091908290030181600087803b15801561142057600080fd5b505af1158015611434573d6000803e3d6000fd5b505050506040513d602081101561144a57600080fd5b505180156114d8575060055460408051636eb1769f60e11b81523060048201526001600160a01b03928316602482015290519183169163dd62ed3e91604480820192602092909190829003018186803b1580156114a657600080fd5b505afa1580156114ba573d6000803e3d6000fd5b505050506040513d60208110156114d057600080fd5b5051620186a0145b80156115685750600554604080516323b872dd60e01b8152306004820152336024820152620186a0604482015290516001600160a01b03909216916323b872dd916064808201926020929091908290030181600087803b15801561153b57600080fd5b505af115801561154f573d6000803e3d6000fd5b505050506040513d602081101561156557600080fd5b50515b80156115e9575060408051636eb1769f60e11b815230600482015233602482015290516001600160a01b0383169163dd62ed3e916044808301926020929190829003018186803b1580156115bb57600080fd5b505afa1580156115cf573d6000803e3d6000fd5b505050506040513d60208110156115e557600080fd5b5051155b801561167157506115fd8962030d40611b2e565b604080516370a0823160e01b815233600482015290516001600160a01b038416916370a08231916024808301926020929190829003018186803b15801561164357600080fd5b505afa158015611657573d6000803e3d6000fd5b505050506040513d602081101561166d57600080fd5b5051145b80156116f957506116858a62030d40611b8f565b604080516370a0823160e01b815230600482015290516001600160a01b038416916370a08231916024808301926020929190829003018186803b1580156116cb57600080fd5b505afa1580156116df573d6000803e3d6000fd5b505050506040513d60208110156116f557600080fd5b5051145b6117345760405162461bcd60e51b815260040180806020018281038252602c815260200180611d15602c913960400191505060405180910390fd5b61173c6118ae565b600560009054906101000a90046001600160a01b03166001600160a01b031663ec1e6a4f6040518163ffffffff1660e01b8152600401600060405180830381600087803b15801561178c57600080fd5b505af11580156117a0573d6000803e3d6000fd5b503392505050ff5b6000546001600160a01b031633146117f5576040805162461bcd60e51b81526020600482018190526024820152600080516020611cb1833981519152604482015290519081900360640190fd5b600154600354604080516308f2839760e41b81526001600160a01b03928316600482015290519190921691638f28397091602480830192600092919082900301818387803b15801561184657600080fd5b505af115801561185a573d6000803e3d6000fd5b50505050600560009054906101000a90046001600160a01b03166001600160a01b031663ec1e6a4f6040518163ffffffff1660e01b8152600401600060405180830381600087803b15801561178c57600080fd5b6000546001600160a01b031633146118fb576040805162461bcd60e51b81526020600482018190526024820152600080516020611cb1833981519152604482015290519081900360640190fd5b600154604080516370a0823160e01b815230600482015290516001600160a01b039092169160009183916370a0823191602480820192602092909190829003018186803b15801561194b57600080fd5b505afa15801561195f573d6000803e3d6000fd5b505050506040513d602081101561197557600080fd5b505190508015611a35576040805163a9059cbb60e01b81523360048201526024810183905290516001600160a01b0384169163a9059cbb9160448083019260209291908290030181600087803b1580156119ce57600080fd5b505af11580156119e2573d6000803e3d6000fd5b505050506040513d60208110156119f857600080fd5b5051611a355760405162461bcd60e51b8152600401808060200182810382526023815260200180611cd16023913960400191505060405180910390fd5b5050565b6001546001600160a01b031690565b6000546001600160a01b03163314611a95576040805162461bcd60e51b81526020600482018190526024820152600080516020611cb1833981519152604482015290519081900360640190fd5b6001600160a01b038116611ada5760405162461bcd60e51b8152600401808060200182810382526026815260200180611c8b6026913960400191505060405180910390fd5b600054604080516001600160a01b039283168152918316602083015280517f8be0079c531659141344cd1fd0a4f28419497f9722a3daafe3b4186f6b6457e09281900390910190a1611b2b81611bd1565b50565b600082820183811015611b88576040805162461bcd60e51b815260206004820152601b60248201527f536166654d6174683a206164646974696f6e206f766572666c6f770000000000604482015290519081900360640190fd5b9392505050565b6000611b8883836040518060400160405280601e81526020017f536166654d6174683a207375627472616374696f6e206f766572666c6f770000815250611bf3565b600080546001600160a01b0319166001600160a01b0392909216919091179055565b60008184841115611c825760405162461bcd60e51b81526004018080602001828103825283818151815260200191508051906020019080838360005b83811015611c47578181015183820152602001611c2f565b50505050905090810190601f168015611c745780820380516001836020036101000a031916815260200191505b509250505060405180910390fd5b50505090039056fe4f776e61626c653a206e6577206f776e657220697320746865207a65726f20616464726573734f776e61626c653a2063616c6c6572206973206e6f7420746865206f776e6572563255706772616465723a206661696c656420746f2077697468647261772055534443563255706772616465723a2062616c616e63654f662074657374206661696c6564563255706772616465723a20617070726f76652f7472616e7366657246726f6d2074657374206661696c6564a26469706673582212204accd8c7e42c633088c8abdda9d500ae326131d09129228989dab77ace9ff94764736f6c634300060c0033608060405234801561001057600080fd5b506040516109853803806109858339818101604052602081101561003357600080fd5b505161003e33610063565b600180546001600160a01b0319166001600160a01b0392909216919091179055610085565b600080546001600160a01b0319166001600160a01b0392909216919091179055565b6108f1806100946000396000f3fe608060405234801561001057600080fd5b50600436106100ea5760003560e01c806395d89b411161008c578063e5a6b10f11610066578063e5a6b10f14610258578063ec1e6a4f14610260578063ec5568891461026a578063f2fde38b14610272576100ea565b806395d89b41146102405780639fd0506d14610248578063bd10243014610250576100ea565b806335d99f35116100c857806335d99f35146101d45780636d3c5bbe146101f857806370a08231146102005780638da5cb5b14610238576100ea565b806306fdde03146100ef57806323b872dd1461016c578063313ce567146101b6575b600080fd5b6100f7610298565b6040805160208082528351818301528351919283929083019185019080838360005b83811015610131578181015183820152602001610119565b50505050905090810190601f16801561015e5780820380516001836020036101000a031916815260200191505b509250505060405180910390f35b6101a26004803603606081101561018257600080fd5b506001600160a01b038135811691602081013590911690604001356103cf565b604080519115158252519081900360200190f35b6101be610464565b6040805160ff9092168252519081900360200190f35b6101dc6104da565b604080516001600160a01b039092168252519081900360200190f35b6101dc61051f565b6102266004803603602081101561021657600080fd5b50356001600160a01b0316610564565b60408051918252519081900360200190f35b6101dc6105e7565b6100f76105f6565b6101dc61063b565b6101dc610680565b6100f76106c5565b61026861070a565b005b6101dc61076c565b6102686004803603602081101561028857600080fd5b50356001600160a01b031661077b565b600154604080516306fdde0360e01b815290516060926001600160a01b0316916306fdde03916004808301926000929190829003018186803b1580156102dd57600080fd5b505afa1580156102f1573d6000803e3d6000fd5b505050506040513d6000823e601f3d908101601f19168201604052602081101561031a57600080fd5b810190808051604051939291908464010000000082111561033a57600080fd5b90830190602082018581111561034f57600080fd5b825164010000000081118282018810171561036957600080fd5b82525081516020918201929091019080838360005b8381101561039657818101518382015260200161037e565b50505050905090810190601f1680156103c35780820380516001836020036101000a031916815260200191505b50604052505050905090565b600154604080516323b872dd60e01b81526001600160a01b038681166004830152858116602483015260448201859052915160009392909216916323b872dd9160648082019260209290919082900301818787803b15801561043057600080fd5b505af1158015610444573d6000803e3d6000fd5b505050506040513d602081101561045a57600080fd5b5051949350505050565b6001546040805163313ce56760e01b815290516000926001600160a01b03169163313ce567916004808301926020929190829003018186803b1580156104a957600080fd5b505afa1580156104bd573d6000803e3d6000fd5b505050506040513d60208110156104d357600080fd5b5051905090565b600154604080516335d99f3560e01b815290516000926001600160a01b0316916335d99f35916004808301926020929190829003018186803b1580156104a957600080fd5b60015460408051638da5cb5b60e01b815290516000926001600160a01b031691638da5cb5b916004808301926020929190829003018186803b1580156104a957600080fd5b600154604080516370a0823160e01b81526001600160a01b038481166004830152915160009392909216916370a0823191602480820192602092909190829003018186803b1580156105b557600080fd5b505afa1580156105c9573d6000803e3d6000fd5b505050506040513d60208110156105df57600080fd5b505192915050565b6000546001600160a01b031690565b600154604080516395d89b4160e01b815290516060926001600160a01b0316916395d89b41916004808301926000929190829003018186803b1580156102dd57600080fd5b60015460408051639fd0506d60e01b815290516000926001600160a01b031691639fd0506d916004808301926020929190829003018186803b1580156104a957600080fd5b60015460408051630bd1024360e41b815290516000926001600160a01b03169163bd102430916004808301926020929190829003018186803b1580156104a957600080fd5b6001546040805163e5a6b10f60e01b815290516060926001600160a01b03169163e5a6b10f916004808301926000929190829003018186803b1580156102dd57600080fd5b6000546001600160a01b03163314610769576040805162461bcd60e51b815260206004820181905260248201527f4f776e61626c653a2063616c6c6572206973206e6f7420746865206f776e6572604482015290519081900360640190fd5b33ff5b6001546001600160a01b031690565b6000546001600160a01b031633146107da576040805162461bcd60e51b815260206004820181905260248201527f4f776e61626c653a2063616c6c6572206973206e6f7420746865206f776e6572604482015290519081900360640190fd5b6001600160a01b03811661081f5760405162461bcd60e51b81526004018080602001828103825260268152602001806108966026913960400191505060405180910390fd5b600054604080516001600160a01b039283168152918316602083015280517f8be0079c531659141344cd1fd0a4f28419497f9722a3daafe3b4186f6b6457e09281900390910190a161087081610873565b50565b600080546001600160a01b0319166001600160a01b039290921691909117905556fe4f776e61626c653a206e6577206f776e657220697320746865207a65726f2061646472657373a2646970667358221220c2ebc22923a7ab6ca9e951dc968fe67839223fc472f6dc436309ec96997cb25464736f6c634300060c0033",
    "linkReferences": {}
  },
  "methodIdentifiers": {
    "abortUpgrade()": "d8f6a8f6",
    "helper()": "63b0e66a",
    "implementation()": "5c60da1b",
    "newName()": "64b78570",
    "newProxyAdmin()": "2d4efffe",
    "owner()": "8da5cb5b",
    "proxy()": "ec556889",
    "transferOwnership(address)": "f2fde38b",
    "upgrade()": "d55ec697",
    "withdrawUSDC()": "d8fc063d"
  },
  "id": 35
}