{
  "abi": [
    {
      "inputs": [
        {
          "internalType": "bytes32",
          "name": "digest",
          "type": "bytes32"
        },
        {
          "internalType": "uint8",
          "name": "v",
          "type": "uint8"
        },
        {
          "internalType": "bytes32",
          "name": "r",
          "type": "bytes32"
        },
        {
          "internalType": "bytes32",
          "name": "s",
          "type": "bytes32"
        }
      ],
      "name": "recover",
      "outputs": [
        {
          "internalType": "address",
          "name": "",
          "type": "address"
        }
      ],
      "stateMutability": "pure",
      "type": "function"
    }
  ],
  "bytecode": {
    "object": "0x608060405234801561001057600080fd5b50610290806100206000396000f3fe608060405234801561001057600080fd5b506004361061002b5760003560e01c8063c2bf17b014610030575b600080fd5b6100626004803603608081101561004657600080fd5b5080359060ff602082013516906040810135906060013561007e565b604080516001600160a01b039092168252519081900360200190f35b600061008c85858585610095565b95945050505050565b60007f7fffffffffffffffffffffffffffffff5d576e7357a4501ddfe92f46681b20a08211156100f65760405162461bcd60e51b81526004018080602001828103825260268152602001806102356026913960400191505060405180910390fd5b8360ff16601b1415801561010e57508360ff16601c14155b1561014a5760405162461bcd60e51b815260040180806020018281038252602681526020018061020f6026913960400191505060405180910390fd5b600060018686868660405160008152602001604052604051808581526020018460ff1681526020018381526020018281526020019450505050506020604051602081039080840390855afa1580156101a6573d6000803e3d6000fd5b5050604051601f1901519150506001600160a01b03811661008c576040805162461bcd60e51b815260206004820152601c60248201527f45435265636f7665723a20696e76616c6964207369676e617475726500000000604482015290519081900360640190fdfe45435265636f7665723a20696e76616c6964207369676e6174757265202776272076616c756545435265636f7665723a20696e76616c6964207369676e6174757265202773272076616c7565a26469706673582212203178f4f2a0b60767c15c26ddffb26b30ae8600b5b61c19240b52d4d303dc84ea64736f6c634300060c0033",
    "linkReferences": {}
  },
  "methodIdentifiers": {
    "recover(bytes32,uint8,bytes32,bytes32)": "c2bf17b0"
  },
  "id": 10
}