{
  "abi": [
    {
      "inputs": [
        {
          "internalType": "string",
          "name": "name",
          "type": "string"
        },
        {
          "internalType": "string",
          "name": "version",
          "type": "string"
        }
      ],
      "name": "makeDomainSeparator",
      "outputs": [
        {
          "internalType": "bytes32",
          "name": "",
          "type": "bytes32"
        }
      ],
      "stateMutability": "view",
      "type": "function"
    },
    {
      "inputs": [
        {
          "internalType": "bytes32",
          "name": "domainSeparator",
          "type": "bytes32"
        },
        {
          "internalType": "uint8",
          "name": "v",
          "type": "uint8"
        },
        {
          "internalType": "bytes32",
          "name": "r",
          "type": "bytes32"
        },
        {
          "internalType": "bytes32",
          "name": "s",
          "type": "bytes32"
        },
        {
          "internalType": "bytes",
          "name": "typeHashAndData",
          "type": "bytes"
        }
      ],
      "name": "recover",
      "outputs": [
        {
          "internalType": "address",
          "name": "",
          "type": "address"
        }
      ],
      "stateMutability": "pure",
      "type": "function"
    }
  ],
  "bytecode": {
    "object": "0x608060405234801561001057600080fd5b50610538806100206000396000f3fe608060405234801561001057600080fd5b50600436106100365760003560e01c80633be282801461003b578063c729a0291461010f575b600080fd5b6100fd6004803603604081101561005157600080fd5b81019060208101813564010000000081111561006c57600080fd5b82018360208201111561007e57600080fd5b803590602001918460018302840111640100000000831117156100a057600080fd5b9193909290916020810190356401000000008111156100be57600080fd5b8201836020820111156100d057600080fd5b803590602001918460018302840111640100000000831117156100f257600080fd5b5090925090506101b6565b60408051918252519081900360200190f35b61019a600480360360a081101561012557600080fd5b81359160ff6020820135169160408201359160608101359181019060a08101608082013564010000000081111561015b57600080fd5b82018360208201111561016d57600080fd5b8035906020019184600183028401116401000000008311171561018f57600080fd5b509092509050610234565b604080516001600160a01b039092168252519081900360200190f35b600061022b85858080601f01602080910402602001604051908101604052809392919081815260200183838082843760009201919091525050604080516020601f8901819004810282018101909252878152925087915086908190840183828082843760009201919091525061028492505050565b95945050505050565b60006102798787878787878080601f0160208091040260200160405190810160405280939291908181526020018383808284376000920191909152506102f692505050565b979650505050505050565b8151602092830120815191830191909120604080517f8b73c3c69bb8fe3d512ecc4cf759cc79239f7b179b0ffacaa9a75d522b39400f818601528082019390935260608301919091524660808301523060a0808401919091528151808403909101815260c09092019052805191012090565b80516020808301919091206040805161190160f01b818501526022810189905260428082019390935281518082039093018352606201905280519101206000906102798187878760007f7fffffffffffffffffffffffffffffff5d576e7357a4501ddfe92f46681b20a082111561039e5760405162461bcd60e51b81526004018080602001828103825260268152602001806104dd6026913960400191505060405180910390fd5b8360ff16601b141580156103b657508360ff16601c14155b156103f25760405162461bcd60e51b81526004018080602001828103825260268152602001806104b76026913960400191505060405180910390fd5b600060018686868660405160008152602001604052604051808581526020018460ff1681526020018381526020018281526020019450505050506020604051602081039080840390855afa15801561044e573d6000803e3d6000fd5b5050604051601f1901519150506001600160a01b03811661022b576040805162461bcd60e51b815260206004820152601c60248201527f45435265636f7665723a20696e76616c6964207369676e617475726500000000604482015290519081900360640190fdfe45435265636f7665723a20696e76616c6964207369676e6174757265202776272076616c756545435265636f7665723a20696e76616c6964207369676e6174757265202773272076616c7565a26469706673582212207fc09a5e48adfeedc2f99903837fed46bb08c22e668ad39e4676c800104aaddb64736f6c634300060c0033",
    "linkReferences": {}
  },
  "methodIdentifiers": {
    "makeDomainSeparator(string,string)": "3be28280",
    "recover(bytes32,uint8,bytes32,bytes32,bytes)": "c729a029"
  },
  "id": 11
}