{
  "abi": [
    {
      "inputs": [
        {
          "internalType": "address",
          "name": "_minterManager",
          "type": "address"
        }
      ],
      "stateMutability": "nonpayable",
      "type": "constructor"
    },
    {
      "anonymous": false,
      "inputs": [
        {
          "indexed": true,
          "internalType": "address",
          "name": "_controller",
          "type": "address"
        },
        {
          "indexed": true,
          "internalType": "address",
          "name": "_worker",
          "type": "address"
        }
      ],
      "name": "ControllerConfigured",
      "type": "event"
    },
    {
      "anonymous": false,
      "inputs": [
        {
          "indexed": true,
          "internalType": "address",
          "name": "_controller",
          "type": "address"
        }
      ],
      "name": "ControllerRemoved",
      "type": "event"
    },
    {
      "anonymous": false,
      "inputs": [
        {
          "indexed": true,
          "internalType": "address",
          "name": "msgSender",
          "type": "address"
        },
        {
          "indexed": true,
          "internalType": "address",
          "name": "minter",
          "type": "address"
        },
        {
          "indexed": false,
          "internalType": "uint256",
          "name": "decrement",
          "type": "uint256"
        },
        {
          "indexed": false,
          "internalType": "uint256",
          "name": "newAllowance",
          "type": "uint256"
        }
      ],
      "name": "MinterAllowanceDecremented",
      "type": "event"
    },
    {
      "anonymous": false,
      "inputs": [
        {
          "indexed": true,
          "internalType": "address",
          "name": "_msgSender",
          "type": "address"
        },
        {
          "indexed": true,
          "internalType": "address",
          "name": "_minter",
          "type": "address"
        },
        {
          "indexed": false,
          "internalType": "uint256",
          "name": "_increment",
          "type": "uint256"
        },
        {
          "indexed": false,
          "internalType": "uint256",
          "name": "_newAllowance",
          "type": "uint256"
        }
      ],
      "name": "MinterAllowanceIncremented",
      "type": "event"
    },
    {
      "anonymous": false,
      "inputs": [
        {
          "indexed": true,
          "internalType": "address",
          "name": "_msgSender",
          "type": "address"
        },
        {
          "indexed": true,
          "internalType": "address",
          "name": "_minter",
          "type": "address"
        },
        {
          "indexed": false,
          "internalType": "uint256",
          "name": "_allowance",
          "type": "uint256"
        }
      ],
      "name": "MinterConfigured",
      "type": "event"
    },
    {
      "anonymous": false,
      "inputs": [
        {
          "indexed": true,
          "internalType": "address",
          "name": "_oldMinterManager",
          "type": "address"
        },
        {
          "indexed": true,
          "internalType": "address",
          "name": "_newMinterManager",
          "type": "address"
        }
      ],
      "name": "MinterManagerSet",
      "type": "event"
    },
    {
      "anonymous": false,
      "inputs": [
        {
          "indexed": true,
          "internalType": "address",
          "name": "_msgSender",
          "type": "address"
        },
        {
          "indexed": true,
          "internalType": "address",
          "name": "_minter",
          "type": "address"
        }
      ],
      "name": "MinterRemoved",
      "type": "event"
    },
    {
      "anonymous": false,
      "inputs": [
        {
          "indexed": false,
          "internalType": "address",
          "name": "previousOwner",
          "type": "address"
        },
        {
          "indexed": false,
          "internalType": "address",
          "name": "newOwner",
          "type": "address"
        }
      ],
      "name": "OwnershipTransferred",
      "type": "event"
    },
    {
      "inputs": [
        {
          "internalType": "address",
          "name": "_controller",
          "type": "address"
        },
        {
          "internalType": "address",
          "name": "_worker",
          "type": "address"
        }
      ],
      "name": "configureController",
      "outputs": [],
      "stateMutability": "nonpayable",
      "type": "function"
    },
    {
      "inputs": [
        {
          "internalType": "uint256",
          "name": "_newAllowance",
          "type": "uint256"
        }
      ],
      "name": "configureMinter",
      "outputs": [
        {
          "internalType": "bool",
          "name": "",
          "type": "bool"
        }
      ],
      "stateMutability": "nonpayable",
      "type": "function"
    },
    {
      "inputs": [
        {
          "internalType": "uint256",
          "name": "_allowanceDecrement",
          "type": "uint256"
        }
      ],
      "name": "decrementMinterAllowance",
      "outputs": [
        {
          "internalType": "bool",
          "name": "",
          "type": "bool"
        }
      ],
      "stateMutability": "nonpayable",
      "type": "function"
    },
    {
      "inputs": [],
      "name": "getMinterManager",
      "outputs": [
        {
          "internalType": "contract MinterManagementInterface",
          "name": "",
          "type": "address"
        }
      ],
      "stateMutability": "view",
      "type": "function"
    },
    {
      "inputs": [
        {
          "internalType": "address",
          "name": "_controller",
          "type": "address"
        }
      ],
      "name": "getWorker",
      "outputs": [
        {
          "internalType": "address",
          "name": "",
          "type": "address"
        }
      ],
      "stateMutability": "view",
      "type": "function"
    },
    {
      "inputs": [
        {
          "internalType": "uint256",
          "name": "_allowanceIncrement",
          "type": "uint256"
        }
      ],
      "name": "incrementMinterAllowance",
      "outputs": [
        {
          "internalType": "bool",
          "name": "",
          "type": "bool"
        }
      ],
      "stateMutability": "nonpayable",
      "type": "function"
    },
    {
      "inputs": [],
      "name": "owner",
      "outputs": [
        {
          "internalType": "address",
          "name": "",
          "type": "address"
        }
      ],
      "stateMutability": "view",
      "type": "function"
    },
    {
      "inputs": [
        {
          "internalType": "address",
          "name": "_controller",
          "type": "address"
        }
      ],
      "name": "removeController",
      "outputs": [],
      "stateMutability": "nonpayable",
      "type": "function"
    },
    {
      "inputs": [],
      "name": "removeMinter",
      "outputs": [
        {
          "internalType": "bool",
          "name": "",
          "type": "bool"
        }
      ],
      "stateMutability": "nonpayable",
      "type": "function"
    },
    {
      "inputs": [
        {
          "internalType": "address",
          "name": "_newMinterManager",
          "type": "address"
        }
      ],
      "name": "setMinterManager",
      "outputs": [],
      "stateMutability": "nonpayable",
      "type": "function"
    },
    {
      "inputs": [
        {
          "internalType": "address",
          "name": "newOwner",
          "type": "address"
        }
      ],
      "name": "transferOwnership",
      "outputs": [],
      "stateMutability": "nonpayable",
      "type": "function"
    }
  ],
  "bytecode": {
    "object": "0x608060405234801561001057600080fd5b506040516110d83803806110d88339818101604052602081101561003357600080fd5b505161003e33610063565b600280546001600160a01b0319166001600160a01b0392909216919091179055610085565b600080546001600160a01b0319166001600160a01b0392909216919091179055565b611044806100946000396000f3fe608060405234801561001057600080fd5b50600436106100a95760003560e01c8063c011b1c311610071578063c011b1c314610150578063c4faf7df14610176578063cbf2b8bf146101a4578063ea721569146101c1578063f2fde38b146101c9578063f6a74ed7146101ef576100a9565b806333db2ad2146100ae578063542fef91146100df5780637c6b8ef5146101075780638da5cb5b146101245780639398608b14610148575b600080fd5b6100cb600480360360208110156100c457600080fd5b5035610215565b604080519115158252519081900360200190f35b610105600480360360208110156100f557600080fd5b50356001600160a01b0316610451565b005b6100cb6004803603602081101561011d57600080fd5b50356104fa565b61012c61074a565b604080516001600160a01b039092168252519081900360200190f35b61012c610759565b61012c6004803603602081101561016657600080fd5b50356001600160a01b0316610768565b6101056004803603604081101561018c57600080fd5b506001600160a01b0381358116916020013516610786565b6100cb600480360360208110156101ba57600080fd5b50356108b4565b6100cb61096d565b610105600480360360208110156101df57600080fd5b50356001600160a01b0316610a89565b6101056004803603602081101561020557600080fd5b50356001600160a01b0316610b6f565b336000908152600160205260408120546001600160a01b03166102695760405162461bcd60e51b8152600401808060200182810382526035815260200180610f1e6035913960400191505060405180910390fd5b600082116102a85760405162461bcd60e51b815260040180806020018281038252602a815260200180610f73602a913960400191505060405180910390fd5b336000908152600160209081526040918290205460025483516355138f0d60e11b81526001600160a01b03928316600482018190529451929091169263aa271e1a92602480840193829003018186803b15801561030457600080fd5b505afa158015610318573d6000803e3d6000fd5b505050506040513d602081101561032e57600080fd5b505161036b5760405162461bcd60e51b8152600401808060200182810382526039815260200180610f9d6039913960400191505060405180910390fd5b60025460408051638a6db9c360e01b81526001600160a01b03848116600483015291516000939290921691638a6db9c391602480820192602092909190829003018186803b1580156103bc57600080fd5b505afa1580156103d0573d6000803e3d6000fd5b505050506040513d60208110156103e657600080fd5b5051905060006103f68286610ca6565b604080518781526020810183905281519293506001600160a01b0386169233927f3703d23abba1e61f32acc0682fc062ea5c710672c7d100af5ecd08485e983ad0928290030190a36104488382610d00565b95945050505050565b6000546001600160a01b0316331461049e576040805162461bcd60e51b81526020600482018190526024820152600080516020610f53833981519152604482015290519081900360640190fd5b6002546040516001600160a01b038084169216907f9992ea32e96992be98be5c833cd5b9fd77314819d2146b6f06ab9cfef957af1290600090a3600280546001600160a01b0319166001600160a01b0392909216919091179055565b336000908152600160205260408120546001600160a01b031661054e5760405162461bcd60e51b8152600401808060200182810382526035815260200180610f1e6035913960400191505060405180910390fd5b6000821161058d5760405162461bcd60e51b815260040180806020018281038252602a815260200180610e88602a913960400191505060405180910390fd5b336000908152600160209081526040918290205460025483516355138f0d60e11b81526001600160a01b03928316600482018190529451929091169263aa271e1a92602480840193829003018186803b1580156105e957600080fd5b505afa1580156105fd573d6000803e3d6000fd5b505050506040513d602081101561061357600080fd5b50516106505760405162461bcd60e51b8152600401808060200182810382526039815260200180610fd66039913960400191505060405180910390fd5b60025460408051638a6db9c360e01b81526001600160a01b03848116600483015291516000939290921691638a6db9c391602480820192602092909190829003018186803b1580156106a157600080fd5b505afa1580156106b5573d6000803e3d6000fd5b505050506040513d60208110156106cb57600080fd5b5051905060008482116106de57816106e0565b845b905060006106ee8383610d8c565b604080518481526020810183905281519293506001600160a01b0387169233927f3cc75d3bf58b0100659088c03539964108d5d06342e1bd8085ee43ad8ff6f69a928290030190a36107408482610d00565b9695505050505050565b6000546001600160a01b031690565b6002546001600160a01b031690565b6001600160a01b039081166000908152600160205260409020541690565b6000546001600160a01b031633146107d3576040805162461bcd60e51b81526020600482018190526024820152600080516020610f53833981519152604482015290519081900360640190fd5b6001600160a01b0382166108185760405162461bcd60e51b8152600401808060200182810382526025815260200180610eb26025913960400191505060405180910390fd5b6001600160a01b03811661085d5760405162461bcd60e51b8152600401808060200182810382526021815260200180610efd6021913960400191505060405180910390fd5b6001600160a01b0382811660008181526001602052604080822080546001600160a01b0319169486169485179055517fa56687ff5096e83f6e2c673cda0b677f56bbfcdf5fe0555d5830c407ede193cb9190a35050565b336000908152600160205260408120546001600160a01b03166109085760405162461bcd60e51b8152600401808060200182810382526035815260200180610f1e6035913960400191505060405180910390fd5b3360008181526001602090815260409182902054825186815292516001600160a01b0390911693849390927f5b0b60a4f757b33d9dcb8bd021b6aa371bb2e6f134086797aefcd8c0afab538c92918290030190a36109668184610d00565b9392505050565b336000908152600160205260408120546001600160a01b03166109c15760405162461bcd60e51b8152600401808060200182810382526035815260200180610f1e6035913960400191505060405180910390fd5b336000818152600160205260408082205490516001600160a01b0390911692839290917f4b5ef9a786cf64a7d82ebcf2d5132667edc9faef4ac36260d9a9e52c526b62329190a360025460408051633092afd560e01b81526001600160a01b03848116600483015291519190921691633092afd59160248083019260209291908290030181600087803b158015610a5757600080fd5b505af1158015610a6b573d6000803e3d6000fd5b505050506040513d6020811015610a8157600080fd5b505191505090565b6000546001600160a01b03163314610ad6576040805162461bcd60e51b81526020600482018190526024820152600080516020610f53833981519152604482015290519081900360640190fd5b6001600160a01b038116610b1b5760405162461bcd60e51b8152600401808060200182810382526026815260200180610ed76026913960400191505060405180910390fd5b600054604080516001600160a01b039283168152918316602083015280517f8be0079c531659141344cd1fd0a4f28419497f9722a3daafe3b4186f6b6457e09281900390910190a1610b6c81610dce565b50565b6000546001600160a01b03163314610bbc576040805162461bcd60e51b81526020600482018190526024820152600080516020610f53833981519152604482015290519081900360640190fd5b6001600160a01b038116610c015760405162461bcd60e51b8152600401808060200182810382526025815260200180610eb26025913960400191505060405180910390fd5b6001600160a01b0381811660009081526001602052604090205416610c575760405162461bcd60e51b8152600401808060200182810382526021815260200180610efd6021913960400191505060405180910390fd5b6001600160a01b03811660008181526001602052604080822080546001600160a01b0319169055517f33d83959be2573f5453b12eb9d43b3499bc57d96bd2f067ba44803c859e811139190a250565b600082820183811015610966576040805162461bcd60e51b815260206004820152601b60248201527f536166654d6174683a206164646974696f6e206f766572666c6f770000000000604482015290519081900360640190fd5b600254604080516327226cab60e11b81526001600160a01b0385811660048301526024820185905291516000939290921691634e44d9569160448082019260209290919082900301818787803b158015610d5957600080fd5b505af1158015610d6d573d6000803e3d6000fd5b505050506040513d6020811015610d8357600080fd5b50519392505050565b600061096683836040518060400160405280601e81526020017f536166654d6174683a207375627472616374696f6e206f766572666c6f770000815250610df0565b600080546001600160a01b0319166001600160a01b0392909216919091179055565b60008184841115610e7f5760405162461bcd60e51b81526004018080602001828103825283818151815260200191508051906020019080838360005b83811015610e44578181015183820152602001610e2c565b50505050905090810190601f168015610e715780820380516001836020036101000a031916815260200191505b509250505060405180910390fd5b50505090039056fe416c6c6f77616e63652064656372656d656e74206d7573742062652067726561746572207468616e2030436f6e74726f6c6c6572206d7573742062652061206e6f6e2d7a65726f20616464726573734f776e61626c653a206e6577206f776e657220697320746865207a65726f2061646472657373576f726b6572206d7573742062652061206e6f6e2d7a65726f20616464726573735468652076616c7565206f6620636f6e74726f6c6c6572735b6d73672e73656e6465725d206d757374206265206e6f6e2d7a65726f4f776e61626c653a2063616c6c6572206973206e6f7420746865206f776e6572416c6c6f77616e636520696e6372656d656e74206d7573742062652067726561746572207468616e203043616e206f6e6c7920696e6372656d656e7420616c6c6f77616e636520666f72206d696e7465727320696e206d696e7465724d616e6167657243616e206f6e6c792064656372656d656e7420616c6c6f77616e636520666f72206d696e7465727320696e206d696e7465724d616e61676572a2646970667358221220ab29915ce393119028320443213ad2e12e92bd0d685fb2067b6fc1dff11e464664736f6c634300060c0033",
    "linkReferences": {}
  },
  "methodIdentifiers": {
    "configureController(address,address)": "c4faf7df",
    "configureMinter(uint256)": "cbf2b8bf",
    "decrementMinterAllowance(uint256)": "7c6b8ef5",
    "getMinterManager()": "9398608b",
    "getWorker(address)": "c011b1c3",
    "incrementMinterAllowance(uint256)": "33db2ad2",
    "owner()": "8da5cb5b",
    "removeController(address)": "f6a74ed7",
    "removeMinter()": "ea721569",
    "setMinterManager(address)": "542fef91",
    "transferOwnership(address)": "f2fde38b"
  },
  "id": 3
}