{
  "abi": [
    {
      "inputs": [
        {
          "internalType": "address",
          "name": "contractAddress",
          "type": "address"
        }
      ],
      "name": "callGetBar",
      "outputs": [
        {
          "internalType": "uint256",
          "name": "",
          "type": "uint256"
        }
      ],
      "stateMutability": "view",
      "type": "function"
    },
    {
      "inputs": [
        {
          "internalType": "address",
          "name": "contractAddress",
          "type": "address"
        }
      ],
      "name": "callGetFoo",
      "outputs": [
        {
          "internalType": "string",
          "name": "",
          "type": "string"
        }
      ],
      "stateMutability": "view",
      "type": "function"
    },
    {
      "inputs": [
        {
          "internalType": "address",
          "name": "contractAddress",
          "type": "address"
        },
        {
          "internalType": "uint256",
          "name": "bar",
          "type": "uint256"
        }
      ],
      "name": "callSetBar",
      "outputs": [
        {
          "internalType": "bool",
          "name": "",
          "type": "bool"
        }
      ],
      "stateMutability": "nonpayable",
      "type": "function"
    },
    {
      "inputs": [
        {
          "internalType": "address",
          "name": "contractAddress",
          "type": "address"
        },
        {
          "internalType": "string",
          "name": "foo",
          "type": "string"
        }
      ],
      "name": "callSetFoo",
      "outputs": [
        {
          "internalType": "bool",
          "name": "",
          "type": "bool"
        }
      ],
      "stateMutability": "nonpayable",
      "type": "function"
    }
  ],
  "bytecode": {
    "object": "0x608060405234801561001057600080fd5b506104db806100206000396000f3fe608060405234801561001057600080fd5b506004361061004c5760003560e01c80630b79399d14610051578063e13b888f146100e5578063e6e0454d14610180578063f79412e5146101b8575b600080fd5b6100d16004803603604081101561006757600080fd5b6001600160a01b03823516919081019060408101602082013564010000000081111561009257600080fd5b8201836020820111156100a457600080fd5b803590602001918460018302840111640100000000831117156100c657600080fd5b5090925090506101e4565b604080519115158252519081900360200190f35b61010b600480360360208110156100fb57600080fd5b50356001600160a01b031661028e565b6040805160208082528351818301528351919283929083019185019080838360005b8381101561014557818101518382015260200161012d565b50505050905090810190601f1680156101725780820380516001836020036101000a031916815260200191505b509250505060405180910390f35b6101a66004803603602081101561019657600080fd5b50356001600160a01b03166103bd565b60408051918252519081900360200190f35b6100d1600480360360408110156101ce57600080fd5b506001600160a01b03813516906020013561042a565b6040516367e58ab360e11b8152602060048201908152602482018390526000916001600160a01b0386169163cfcb156691869186918190604401848480828437600081840152601f19601f8201169050808301925050509350505050602060405180830381600087803b15801561025a57600080fd5b505af115801561026e573d6000803e3d6000fd5b505050506040513d602081101561028457600080fd5b5051949350505050565b6060816001600160a01b031663243dc8da6040518163ffffffff1660e01b815260040160006040518083038186803b1580156102c957600080fd5b505afa1580156102dd573d6000803e3d6000fd5b505050506040513d6000823e601f3d908101601f19168201604052602081101561030657600080fd5b810190808051604051939291908464010000000082111561032657600080fd5b90830190602082018581111561033b57600080fd5b825164010000000081118282018810171561035557600080fd5b82525081516020918201929091019080838360005b8381101561038257818101518382015260200161036a565b50505050905090810190601f1680156103af5780820380516001836020036101000a031916815260200191505b506040525050509050919050565b6000816001600160a01b03166367a23d136040518163ffffffff1660e01b815260040160206040518083038186803b1580156103f857600080fd5b505afa15801561040c573d6000803e3d6000fd5b505050506040513d602081101561042257600080fd5b505192915050565b6000826001600160a01b031663352d3fba836040518263ffffffff1660e01b815260040180828152602001915050602060405180830381600087803b15801561047257600080fd5b505af1158015610486573d6000803e3d6000fd5b505050506040513d602081101561049c57600080fd5b5051939250505056fea2646970667358221220afe4ac7a3865e384d9f44f061ba37328cd13168fe260c9d3e3260f73e675cb7a64736f6c634300060c0033",
    "linkReferences": {}
  },
  "methodIdentifiers": {
    "callGetBar(address)": "e6e0454d",
    "callGetFoo(address)": "e13b888f",
    "callSetBar(address,uint256)": "f79412e5",
    "callSetFoo(address,string)": "0b79399d"
  },
  "id": 5
}