{
  "abi": [
    {
      "inputs": [],
      "name": "getBar",
      "outputs": [
        {
          "internalType": "uint256",
          "name": "",
          "type": "uint256"
        }
      ],
      "stateMutability": "view",
      "type": "function"
    },
    {
      "inputs": [],
      "name": "getFoo",
      "outputs": [
        {
          "internalType": "string",
          "name": "",
          "type": "string"
        }
      ],
      "stateMutability": "view",
      "type": "function"
    },
    {
      "inputs": [
        {
          "internalType": "uint256",
          "name": "bar",
          "type": "uint256"
        }
      ],
      "name": "setBar",
      "outputs": [
        {
          "internalType": "bool",
          "name": "",
          "type": "bool"
        }
      ],
      "stateMutability": "nonpayable",
      "type": "function"
    },
    {
      "inputs": [
        {
          "internalType": "string",
          "name": "foo",
          "type": "string"
        }
      ],
      "name": "setFoo",
      "outputs": [
        {
          "internalType": "bool",
          "name": "",
          "type": "bool"
        }
      ],
      "stateMutability": "nonpayable",
      "type": "function"
    }
  ],
  "bytecode": {
    "object": "0x608060405234801561001057600080fd5b5061030d806100206000396000f3fe608060405234801561001057600080fd5b506004361061004c5760003560e01c8063243dc8da14610051578063352d3fba146100ce57806367a23d13146100ff578063cfcb156614610119575b600080fd5b610059610189565b6040805160208082528351818301528351919283929083019185019080838360005b8381101561009357818101518382015260200161007b565b50505050905090810190601f1680156100c05780820380516001836020036101000a031916815260200191505b509250505060405180910390f35b6100eb600480360360208110156100e457600080fd5b503561021f565b604080519115158252519081900360200190f35b610107610227565b60408051918252519081900360200190f35b6100eb6004803603602081101561012f57600080fd5b81019060208101813564010000000081111561014a57600080fd5b82018360208201111561015c57600080fd5b8035906020019184600183028401116401000000008311171561017e57600080fd5b50909250905061022d565b60008054604080516020601f60026000196101006001881615020190951694909404938401819004810282018101909252828152606093909290918301828280156102155780601f106101ea57610100808354040283529160200191610215565b820191906000526020600020905b8154815290600101906020018083116101f857829003601f168201915b5050505050905090565b600190815590565b60015490565b600061023a818484610244565b5060019392505050565b828054600181600116156101000203166002900490600052602060002090601f016020900481019282601f106102855782800160ff198235161785556102b2565b828001600101855582156102b2579182015b828111156102b2578235825591602001919060010190610297565b506102be9291506102c2565b5090565b5b808211156102be57600081556001016102c356fea264697066735822122060fc1569a37e6c87e5c109e14ebba57b57aa7e30ddf333a1d36701f1f53dcc1b64736f6c634300060c0033",
    "linkReferences": {}
  },
  "methodIdentifiers": {
    "getBar()": "67a23d13",
    "getFoo()": "243dc8da",
    "setBar(uint256)": "352d3fba",
    "setFoo(string)": "cfcb1566"
  },
  "id": 7
}