{
  "abi": [
    {
      "anonymous": false,
      "inputs": [
        {
          "indexed": true,
          "internalType": "address",
          "name": "_controller",
          "type": "address"
        },
        {
          "indexed": true,
          "internalType": "address",
          "name": "_worker",
          "type": "address"
        }
      ],
      "name": "ControllerConfigured",
      "type": "event"
    },
    {
      "anonymous": false,
      "inputs": [
        {
          "indexed": true,
          "internalType": "address",
          "name": "_controller",
          "type": "address"
        }
      ],
      "name": "ControllerRemoved",
      "type": "event"
    },
    {
      "anonymous": false,
      "inputs": [
        {
          "indexed": false,
          "internalType": "address",
          "name": "previousOwner",
          "type": "address"
        },
        {
          "indexed": false,
          "internalType": "address",
          "name": "newOwner",
          "type": "address"
        }
      ],
      "name": "OwnershipTransferred",
      "type": "event"
    },
    {
      "inputs": [
        {
          "internalType": "address",
          "name": "_controller",
          "type": "address"
        },
        {
          "internalType": "address",
          "name": "_worker",
          "type": "address"
        }
      ],
      "name": "configureController",
      "outputs": [],
      "stateMutability": "nonpayable",
      "type": "function"
    },
    {
      "inputs": [
        {
          "internalType": "address",
          "name": "_controller",
          "type": "address"
        }
      ],
      "name": "getWorker",
      "outputs": [
        {
          "internalType": "address",
          "name": "",
          "type": "address"
        }
      ],
      "stateMutability": "view",
      "type": "function"
    },
    {
      "inputs": [],
      "name": "owner",
      "outputs": [
        {
          "internalType": "address",
          "name": "",
          "type": "address"
        }
      ],
      "stateMutability": "view",
      "type": "function"
    },
    {
      "inputs": [
        {
          "internalType": "address",
          "name": "_controller",
          "type": "address"
        }
      ],
      "name": "removeController",
      "outputs": [],
      "stateMutability": "nonpayable",
      "type": "function"
    },
    {
      "inputs": [
        {
          "internalType": "address",
          "name": "newOwner",
          "type": "address"
        }
      ],
      "name": "transferOwnership",
      "outputs": [],
      "stateMutability": "nonpayable",
      "type": "function"
    }
  ],
  "bytecode": {
    "object": "0x608060405234801561001057600080fd5b5061001a3361001f565b610041565b600080546001600160a01b0319166001600160a01b0392909216919091179055565b610594806100506000396000f3fe608060405234801561001057600080fd5b50600436106100575760003560e01c80638da5cb5b1461005c578063c011b1c314610080578063c4faf7df146100a6578063f2fde38b146100d6578063f6a74ed7146100fc575b600080fd5b610064610122565b604080516001600160a01b039092168252519081900360200190f35b6100646004803603602081101561009657600080fd5b50356001600160a01b0316610131565b6100d4600480360360408110156100bc57600080fd5b506001600160a01b038135811691602001351661014f565b005b6100d4600480360360208110156100ec57600080fd5b50356001600160a01b031661028f565b6100d46004803603602081101561011257600080fd5b50356001600160a01b0316610387565b6000546001600160a01b031690565b6001600160a01b039081166000908152600160205260409020541690565b6000546001600160a01b031633146101ae576040805162461bcd60e51b815260206004820181905260248201527f4f776e61626c653a2063616c6c6572206973206e6f7420746865206f776e6572604482015290519081900360640190fd5b6001600160a01b0382166101f35760405162461bcd60e51b81526004018080602001828103825260258152602001806104f36025913960400191505060405180910390fd5b6001600160a01b0381166102385760405162461bcd60e51b815260040180806020018281038252602181526020018061053e6021913960400191505060405180910390fd5b6001600160a01b0382811660008181526001602052604080822080546001600160a01b0319169486169485179055517fa56687ff5096e83f6e2c673cda0b677f56bbfcdf5fe0555d5830c407ede193cb9190a35050565b6000546001600160a01b031633146102ee576040805162461bcd60e51b815260206004820181905260248201527f4f776e61626c653a2063616c6c6572206973206e6f7420746865206f776e6572604482015290519081900360640190fd5b6001600160a01b0381166103335760405162461bcd60e51b81526004018080602001828103825260268152602001806105186026913960400191505060405180910390fd5b600054604080516001600160a01b039283168152918316602083015280517f8be0079c531659141344cd1fd0a4f28419497f9722a3daafe3b4186f6b6457e09281900390910190a1610384816104d0565b50565b6000546001600160a01b031633146103e6576040805162461bcd60e51b815260206004820181905260248201527f4f776e61626c653a2063616c6c6572206973206e6f7420746865206f776e6572604482015290519081900360640190fd5b6001600160a01b03811661042b5760405162461bcd60e51b81526004018080602001828103825260258152602001806104f36025913960400191505060405180910390fd5b6001600160a01b03818116600090815260016020526040902054166104815760405162461bcd60e51b815260040180806020018281038252602181526020018061053e6021913960400191505060405180910390fd5b6001600160a01b03811660008181526001602052604080822080546001600160a01b0319169055517f33d83959be2573f5453b12eb9d43b3499bc57d96bd2f067ba44803c859e811139190a250565b600080546001600160a01b0319166001600160a01b039290921691909117905556fe436f6e74726f6c6c6572206d7573742062652061206e6f6e2d7a65726f20616464726573734f776e61626c653a206e6577206f776e657220697320746865207a65726f2061646472657373576f726b6572206d7573742062652061206e6f6e2d7a65726f2061646472657373a26469706673582212208ed4e8cc39e52996ea8220675511f22183c7b616d0755bfa9a1f7a0311b9009f64736f6c634300060c0033",
    "linkReferences": {}
  },
  "methodIdentifiers": {
    "configureController(address,address)": "c4faf7df",
    "getWorker(address)": "c011b1c3",
    "owner()": "8da5cb5b",
    "removeController(address)": "f6a74ed7",
    "transferOwnership(address)": "f2fde38b"
  },
  "id": 1
}