{
  "abi": [
    {
      "anonymous": false,
      "inputs": [
        {
          "indexed": true,
          "internalType": "address",
          "name": "_account",
          "type": "address"
        }
      ],
      "name": "Blacklisted",
      "type": "event"
    },
    {
      "anonymous": false,
      "inputs": [
        {
          "indexed": true,
          "internalType": "address",
          "name": "newBlacklister",
          "type": "address"
        }
      ],
      "name": "BlacklisterChanged",
      "type": "event"
    },
    {
      "anonymous": false,
      "inputs": [
        {
          "indexed": false,
          "internalType": "address",
          "name": "previousOwner",
          "type": "address"
        },
        {
          "indexed": false,
          "internalType": "address",
          "name": "newOwner",
          "type": "address"
        }
      ],
      "name": "OwnershipTransferred",
      "type": "event"
    },
    {
      "anonymous": false,
      "inputs": [
        {
          "indexed": true,
          "internalType": "address",
          "name": "_account",
          "type": "address"
        }
      ],
      "name": "UnBlacklisted",
      "type": "event"
    },
    {
      "inputs": [
        {
          "internalType": "address",
          "name": "_account",
          "type": "address"
        }
      ],
      "name": "blacklist",
      "outputs": [],
      "stateMutability": "nonpayable",
      "type": "function"
    },
    {
      "inputs": [],
      "name": "blacklister",
      "outputs": [
        {
          "internalType": "address",
          "name": "",
          "type": "address"
        }
      ],
      "stateMutability": "view",
      "type": "function"
    },
    {
      "inputs": [
        {
          "internalType": "address",
          "name": "_account",
          "type": "address"
        }
      ],
      "name": "isBlacklisted",
      "outputs": [
        {
          "internalType": "bool",
          "name": "",
          "type": "bool"
        }
      ],
      "stateMutability": "view",
      "type": "function"
    },
    {
      "inputs": [],
      "name": "owner",
      "outputs": [
        {
          "internalType": "address",
          "name": "",
          "type": "address"
        }
      ],
      "stateMutability": "view",
      "type": "function"
    },
    {
      "inputs": [
        {
          "internalType": "address",
          "name": "newOwner",
          "type": "address"
        }
      ],
      "name": "transferOwnership",
      "outputs": [],
      "stateMutability": "nonpayable",
      "type": "function"
    },
    {
      "inputs": [
        {
          "internalType": "address",
          "name": "_account",
          "type": "address"
        }
      ],
      "name": "unBlacklist",
      "outputs": [],
      "stateMutability": "nonpayable",
      "type": "function"
    },
    {
      "inputs": [
        {
          "internalType": "address",
          "name": "_newBlacklister",
          "type": "address"
        }
      ],
      "name": "updateBlacklister",
      "outputs": [],
      "stateMutability": "nonpayable",
      "type": "function"
    }
  ],
  "bytecode": {
    "object": "0x608060405234801561001057600080fd5b5061001a3361001f565b610041565b600080546001600160a01b0319166001600160a01b0392909216919091179055565b6105ad806100506000396000f3fe608060405234801561001057600080fd5b506004361061007d5760003560e01c8063bd1024301161005b578063bd102430146100f4578063f2fde38b146100fc578063f9f92be414610122578063fe575a87146101485761007d565b80631a895266146100825780638da5cb5b146100aa578063ad38bf22146100ce575b600080fd5b6100a86004803603602081101561009857600080fd5b50356001600160a01b0316610182565b005b6100b2610214565b604080516001600160a01b039092168252519081900360200190f35b6100a8600480360360208110156100e457600080fd5b50356001600160a01b0316610223565b6100b2610317565b6100a86004803603602081101561011257600080fd5b50356001600160a01b0316610326565b6100a86004803603602081101561013857600080fd5b50356001600160a01b031661041e565b61016e6004803603602081101561015e57600080fd5b50356001600160a01b03166104b3565b604080519115158252519081900360200190f35b6001546001600160a01b031633146101cb5760405162461bcd60e51b815260040180806020018281038252602c81526020018061051a602c913960400191505060405180910390fd5b6001600160a01b038116600081815260026020526040808220805460ff19169055517f117e3210bb9aa7d9baff172026820255c6f6c30ba8999d1c2fd88e2848137c4e9190a250565b6000546001600160a01b031690565b6000546001600160a01b03163314610282576040805162461bcd60e51b815260206004820181905260248201527f4f776e61626c653a2063616c6c6572206973206e6f7420746865206f776e6572604482015290519081900360640190fd5b6001600160a01b0381166102c75760405162461bcd60e51b81526004018080602001828103825260328152602001806105466032913960400191505060405180910390fd5b600180546001600160a01b0319166001600160a01b0383811691909117918290556040519116907fc67398012c111ce95ecb7429b933096c977380ee6c421175a71a4a4c6c88c06e90600090a250565b6001546001600160a01b031681565b6000546001600160a01b03163314610385576040805162461bcd60e51b815260206004820181905260248201527f4f776e61626c653a2063616c6c6572206973206e6f7420746865206f776e6572604482015290519081900360640190fd5b6001600160a01b0381166103ca5760405162461bcd60e51b81526004018080602001828103825260268152602001806104f46026913960400191505060405180910390fd5b600054604080516001600160a01b039283168152918316602083015280517f8be0079c531659141344cd1fd0a4f28419497f9722a3daafe3b4186f6b6457e09281900390910190a161041b816104d1565b50565b6001546001600160a01b031633146104675760405162461bcd60e51b815260040180806020018281038252602c81526020018061051a602c913960400191505060405180910390fd5b6001600160a01b038116600081815260026020526040808220805460ff19166001179055517fffa4e6181777692565cf28528fc88fd1516ea86b56da075235fa575af6a4b8559190a250565b6001600160a01b031660009081526002602052604090205460ff1690565b600080546001600160a01b0319166001600160a01b039290921691909117905556fe4f776e61626c653a206e6577206f776e657220697320746865207a65726f2061646472657373426c61636b6c69737461626c653a2063616c6c6572206973206e6f742074686520626c61636b6c6973746572426c61636b6c69737461626c653a206e657720626c61636b6c697374657220697320746865207a65726f2061646472657373a2646970667358221220c0136d1da918e5ea8f963758c3f728857f9bf15309e32948872cc1bb3ea0cadb64736f6c634300060c0033",
    "linkReferences": {}
  },
  "methodIdentifiers": {
    "blacklist(address)": "f9f92be4",
    "blacklister()": "bd102430",
    "isBlacklisted(address)": "fe575a87",
    "owner()": "8da5cb5b",
    "transferOwnership(address)": "f2fde38b",
    "unBlacklist(address)": "1a895266",
    "updateBlacklister(address)": "ad38bf22"
  },
  "id": 23
}