{
  "abi": [
    {
      "stateMutability": "payable",
      "type": "fallback"
    },
    {
      "inputs": [],
      "name": "reason",
      "outputs": [
        {
          "internalType": "string",
          "name": "",
          "type": "string"
        }
      ],
      "stateMutability": "view",
      "type": "function"
    },
    {
      "inputs": [],
      "name": "revertNoReason",
      "outputs": [],
      "stateMutability": "pure",
      "type": "function"
    },
    {
      "inputs": [
        {
          "internalType": "string",
          "name": "reasonMsg",
          "type": "string"
        }
      ],
      "name": "revertWithReason",
      "outputs": [],
      "stateMutability": "pure",
      "type": "function"
    },
    {
      "inputs": [
        {
          "internalType": "string",
          "name": "reason",
          "type": "string"
        }
      ],
      "name": "setReason",
      "outputs": [],
      "stateMutability": "nonpayable",
      "type": "function"
    },
    {
      "stateMutability": "payable",
      "type": "receive"
    }
  ],
  "bytecode": {
    "object": "0x608060405234801561001057600080fd5b506104d6806100206000396000f3fe6080604052600436106100435760003560e01c80633dcfb1db1461017f57806366092abd146101fe578063e134e33d14610213578063f7a303811461029d57610103565b366101035760005460026000196101006001841615020190911604156100fe5760405162461bcd60e51b815260206004820190815260008054600260001961010060018416150201909116046024840181905290928291604490910190849080156100ef5780601f106100c4576101008083540402835291602001916100ef565b820191906000526020600020905b8154815290600101906020018083116100d257829003601f168201915b50509250505060405180910390fd5b600080fd5b60005460026000196101006001841615020190911604156100fe5760405162461bcd60e51b815260206004820190815260008054600260001961010060018416150201909116046024840181905290928291604490910190849080156100ef5780601f106100c4576101008083540402835291602001916100ef565b34801561018b57600080fd5b506101fc600480360360208110156101a257600080fd5b8101906020810181356401000000008111156101bd57600080fd5b8201836020820111156101cf57600080fd5b803590602001918460018302840111640100000000831117156101f157600080fd5b50909250905061031a565b005b34801561020a57600080fd5b506101fc6100fe565b34801561021f57600080fd5b5061022861032b565b6040805160208082528351818301528351919283929083019185019080838360005b8381101561026257818101518382015260200161024a565b50505050905090810190601f16801561028f5780820380516001836020036101000a031916815260200191505b509250505060405180910390f35b3480156102a957600080fd5b506101fc600480360360208110156102c057600080fd5b8101906020810181356401000000008111156102db57600080fd5b8201836020820111156102ed57600080fd5b8035906020019184600183028401116401000000008311171561030f57600080fd5b5090925090506103c1565b6103266000838361040d565b505050565b60008054604080516020601f60026000196101006001881615020190951694909404938401819004810282018101909252828152606093909290918301828280156103b75780601f1061038c576101008083540402835291602001916103b7565b820191906000526020600020905b81548152906001019060200180831161039a57829003601f168201915b5050505050905090565b818160405162461bcd60e51b815260040180806020018281038252848482818152602001925080828437600083820152604051601f909101601f19169092018290039550909350505050fd5b828054600181600116156101000203166002900490600052602060002090601f016020900481019282601f1061044e5782800160ff1982351617855561047b565b8280016001018555821561047b579182015b8281111561047b578235825591602001919060010190610460565b5061048792915061048b565b5090565b5b80821115610487576000815560010161048c56fea2646970667358221220fa5aa406336b5e51d4a644e835f5c9ba7542da878488287bdf3c6a1064a81e9b64736f6c634300060c0033",
    "linkReferences": {}
  },
  "methodIdentifiers": {
    "reason()": "e134e33d",
    "revertNoReason()": "66092abd",
    "revertWithReason(string)": "f7a30381",
    "setReason(string)": "3dcfb1db"
  },
  "id": 6
}